:100000000C9490000C949A000C949A000C949A0012
:100010000C949A000C949A000C949A000C949A00F8
:100020000C949A000C949A000C949A000C949A00E8
:100030000C949A000C949A000C949A000C949A00D8
:100040000C949A000C949A000C949A000C949A00C8
:100050000C949A000C949A000C949A000C949A00B8
:100060000C949A000C949A000C949A000C949A00A8
:100070000C949A000C949A000C949A000C949A0098
:100080000C949A000C949A000C949A000C949A0088
:100090000C949A000C949A000C949A000C949A0078
:1000A0000C949A000C949A000C949A000C949A0068
:1000B0000C949A000C949A000C949A000C949A0058
:1000C0000C949A000C949A000C949A000C949A0048
:1000D0000C949A000C949A000C949A000C949A0038
:1000E0000C949A000C949A000C949A000C949A0028
:1000F0000C949A000C949A000C949A000C949A0018
:100100000C949A000C949A000C949A000C949A0007
:100110000C949A000C949A000C949A000C949A00F7
:1001200011241FBECFEFD1E4DEBFCDBF0E94BB00C4
:100130000C94DA000C94000080917C00807E809307
:100140007C0020E180E090E030917A0030643093D0
:100150007A0030917A0036FDFCCF409178005091C2
:100160007900840F951F215079F724E096958795A3
:100170002A95E1F708956B9A73986A9A729880E4C9
:1001800080937C0087E880937A0080917B0085FDD6
:10019000FCCF80E00E949C008C3318F4739A729A12
:1001A00002C0739872988FE39CE90197F1F700C041
:0801B0000000EFCFF894FFCF2F
:00000001FF
