:100000000C9490000C949A000C949A000C949A0012
:100010000C949A000C949A000C949A000C949A00F8
:100020000C949A000C949A000C949A000C949A00E8
:100030000C949A000C949A000C949A000C949A00D8
:100040000C949A000C949A000C949A000C949A00C8
:100050000C949A000C949A000C949A000C949A00B8
:100060000C949A000C949A000C949A000C949A00A8
:100070000C949A000C949A000C949A000C949A0098
:100080000C949A000C949A000C949A000C949A0088
:100090000C949A000C949A000C949A000C949A0078
:1000A0000C949A000C949A000C949A000C949A0068
:1000B0000C949A000C949A000C949A000C949A0058
:1000C0000C949A000C949A000C949A000C949A0048
:1000D0000C949A000C949A000C949A000C949A0038
:1000E0000C949A000C949A000C949A000C949A0028
:1000F0000C949A000C949A000C949A000C949A0018
:100100000C949A000C949A000C949A000C949A0007
:100110000C949A000C949A000C949A000C949A00F7
:1001200011241FBECFEFD1E4DEBFCDBF0E949C00E3
:100130000C940E010C9400008FEF8DB91EB8FDE7F2
:10014000E5E07BE56FE457E24EE63EE725E49FE716
:100150008FE6FEB9AFEFBDE3C9E4A150B040C040A7
:10016000E1F700C00000EEB9AFEFBDE3C9E4A15074
:10017000B040C040E1F700C000007EB9AFEFBDE382
:10018000C9E4A150B040C040E1F700C000006EB922
:10019000AFEFBDE3C9E4A150B040C040E1F700C0FB
:1001A00000005EB9AFEFBDE3C9E4A150B040C0406C
:1001B000E1F700C000004EB9AFEFBDE3C9E4A150C4
:1001C000B040C040E1F700C000003EB9AFEFBDE372
:1001D000C9E4A150B040C040E1F700C000002EB912
:1001E000AFEFBDE3C9E4A150B040C040E1F700C0AB
:1001F00000009EB9AFEFBDE3C9E4A150B040C040DC
:10020000E1F700C000008EB9AFEFBDE3C9E4A15033
:10021000B040C040E1F700C000009BCFF894FFCF92
:00000001FF
