:100000000C9490000C94AF000C94AF000C94AF00D3
:100010000C94AF000C94AF000C94AF000C94AF00A4
:100020000C94AF000C94AF000C94AF000C94AF0094
:100030000C94AF000C94AF000C94AF000C94AF0084
:100040000C94AF000C94AF000C94AF000C94AF0074
:100050000C94B1000C94AF000C94AF000C94AF0062
:100060000C94AF000C94AF000C94AF000C94AF0054
:100070000C94AF000C94AF000C94AF000C94AF0044
:100080000C94AF000C94AF000C94AF000C94AF0034
:100090000C94AF000C94AF000C94AF000C94AF0024
:1000A0000C94AF000C94AF000C94AF000C94AF0014
:1000B0000C94AF000C94AF000C94AF000C94AF0004
:1000C0000C94AF000C94AF000C94AF000C94AF00F4
:1000D0000C94AF000C94AF000C94AF000C94AF00E4
:1000E0000C94AF000C94AF000C94AF000C94AF00D4
:1000F0000C94AF000C94AF000C94AF000C94AF00C4
:100100000C94AF000C94AF000C94AF000C94AF00B3
:100110000C94AF000C94AF000C94AF000C94AF00A3
:1001200011241FBECFEFD1E4DEBFCDBF12E0A0E0AF
:10013000B2E0EAE6F2E000E00BBF02C007900D92E9
:10014000A230B107D9F722E0A2E0B2E001C01D92CF
:10015000A630B207E1F70E94F7000C9433010C942B
:1001600000001F920F920FB60F9211242F933F930E
:100170008F939F938091000290910102909385004C
:10018000809384008CB190E02091040230910502AC
:100190002150310902C0959587952A95E2F780FD97
:1001A0001EB82EB181E090E00090040202C0880FDA
:1001B000991F0A94E2F7822B8EB9809104029091E4
:1001C00005028430910529F4109205021092040270
:1001D00005C0019690930502809304029F918F9130
:1001E0003F912F910F900FBE0F901F901895689A16
:1001F000699A6A9A6B9A6C9A6D986E9A6F9A83E074
:100200008093810080916F00816080936F0078946B
:10021000659B16C08FE39CE90197F1F700C00000D1
:1002200080910202811106C0909103029F5F90931A
:10023000030202C08A3030F48F5F8093020202C052
:100240001092020280910302813011F78091000226
:100250009091010288519C4F90930102809300027B
:0A02600010920302D5CFF894FFCFEF
:02026A0090E220
:00000001FF
